:03000000020A866B
:0C0A8600787FE4F6D8FD75811002094B62
:100A72003F065B4F666D7D077F6F777C395E7971CC
:040A82000921090637
:040A58007F017E009C
:100A5C00EF1FAA0670011E4A600BE4FDEDC39471F2
:050A6C0050EE0D80F7C3
:010A71002262
:10094B0078097C007D007BFF7A0A79827E007F0428
:10095B001208D0E4F50DF50EF50FF510E510450F67
:10096B006008E51015107002150F20B224E5104534
:10097B000F701E050EE50E7002050DC39402E50DFA
:10098B00648094804005E4F50DF50E750F0075102D
:10099B00C8D293D292D291D290E50E25E02409F8D9
:1009AB00E6FE08E6FF7C007D0A1208F6AC05EC902B
:1009BB000A7293F4F580C290120A58D293D292D253
:1009CB0091D290E50E25E02409F8E6FE08E6FF7CBF
:1009DB00007D641208F67E007F0ACFCDCFCECCCE41
:1009EB001208F6AC07EC93F4F580C291120A58D2B8
:1009FB0093D292D291D290E50E25E02409F8E6FE2F
:100A0B0008E6FF7C037DE81208F67E007F64CFCDFD
:100A1B00CFCECCCE1208F6AC07EC93F4F580C29295
:100A2B00120A58D293D292D291D290E50E25E0249D
:100A3B0009F8E6FE08E6FF7C037DE81208F6AC0732
:0D0A4B00EC93F4F580C293120A580209677B
:10080000E709F608DFFA8046E709F208DFFA803EDA
:1008100088828C83E709F0A3DFFA8032E309F608C7
:10082000DFFA8078E309F208DFFA807088828C832F
:10083000E309F0A3DFFA806489828A83E0A3F608E3
:10084000DFFA805889828A83E0A3F208DFFA804CBD
:1008500080D280FA80C680D4806980F28033801094
:1008600080A680EA809A80A880DA80E280CA8033FD
:1008700089828A83ECFAE493A3C8C582C8CCC58375
:10088000CCF0A3C8C582C8CCC583CCDFE9DEE78045
:100890000D89828A83E493A3F608DFF9ECFAA9F0C4
:1008A000EDFB2289828A83ECFAE0A3C8C582C8CC1A
:1008B000C583CCF0A3C8C582C8CCC583CCDFEADE33
:1008C000E880DB89828A83E493A3F208DFF980CC95
:1008D00088F0EF60010E4E60C388F0ED2402B4048E
:1008E0000050B9F582EB2402B4040050AF23234535
:0608F00082239008507302
:1008F600BC000BBE0029EF8DF084FFADF022E4CCE6
:10090600F875F008EF2FFFEE33FEEC33FCEE9DECAE
:10091600984005FCEE9DFE0FD5F0E9E4CEFD22EDF4
:10092600F8F5F0EE8420D21CFEADF075F008EF2F3E
:10093600FFED33FD4007985006D5F0F222C398FD2F
:050946000FD5F0EA22CC
:00000001FF
