:030000000208DB18
:0C08DB00787FE4F6D8FD75811302092235
:100A8100020C0000020E000A0210000C020A000112
:080A910002120000020800003F
:060A4C00D2977F017E003D
:100A5200EF1FAA0670011E4A600BE4FDEDC39471FC
:050A620050EE0D80F7CD
:010A6700226C
:10080000120A687F80120AAF758910758BF0758D9A
:10081000D8D28E1209F2E51345126008E5131513BC
:100820007002151220B21EE51345127018E50B4533
:100830000A7007F50A750B018005E4F50AF50B75DA
:10084000122375132820B31FE51345127019F50AFA
:10085000F50BF50CF50DF50EF50FF510F5117512FC
:10086000237513281209F2E50B6401450A70A730BD
:100870008F0AC28F0509E50970020508E5096414AD
:1008800045087092050DE50D7002050CD3943BE50B
:100890000C64809480400DE4F50CF50D050FE50F18
:1008A0007002050ED3E50F943BE50E648094804002
:1008B0000DE4F50EF50F0511E51170020510D3E5F5
:1008C000119417E510648094804005E4F510F5114B
:0B08D0001209F2E4F508F50902081611
:1009F2007F80120AAFAE10AF11120A9AAE10AF1179
:100A02007C007D0A120967ED2430FF120AA57F3AA5
:100A1200120AA5AE0EAF0F120A9AAE0EAF0F7C00ED
:100A22007D0A120967ED2430FF120AA57F3A120AE5
:100A3200A5AE0CAF0D120A9AAE0CAF0D7C007D0A6A
:0A0A4200120967ED2430FF020AA537
:0B0A9A007C007D0A120967EF2430FF8A
:0A0AA5008F80D296120A4CC29722ED
:0A0AAF008F80C296120A4CC29722F3
:100A68007F38120AAF7F0C120AAF7F06120AAF7FD7
:090A780001120AAF7F02020AAF6D
:1008E700020800E493A3F8E493A34003F68001F21F
:1008F70008DFF48029E493A3F85407240CC8C33312
:10090700C4540F4420C8834004F456800146F6DFE0
:10091700E4800B0102040810204080900A81E47EE5
:10092700019360BCA3FF543F30E509541FFEE493D5
:10093700A360010ECF54C025E060A840B8E493A39C
:10094700FAE493A3F8E493A3C8C582C8CAC583CAC7
:10095700F0A3C8C582C8CAC583CADFE9DEE780BE7F
:010A9900005C
:10096700C2D5EC30E709B2D5E4C39DFDE49CFCEEAB
:1009770030E715B2D5E4C39FFFE49EFE12099DC37D
:10098700E49DFDE49CFC800312099D30D507C3E478
:060997009FFFE49EFE221A
:10099D00BC000BBE0029EF8DF084FFADF022E4CC3E
:1009AD00F875F008EF2FFFEE33FEEC33FCEE9DEC07
:1009BD00984005FCEE9DFE0FD5F0E9E4CEFD22ED4D
:1009CD00F8F5F0EE8420D21CFEADF075F008EF2F97
:1009DD00FFED33FD4007985006D5F0F222C398FD88
:0509ED000FD5F0EA2225
:00000001FF
