:03000000020F3FAD
:0C0F3F00787FE4F6D8FD758129020F864A
:10107E00FEFDFBF7C0F9A4B0999282F880988883A0
:04108E00C6A1868EE3
:10103900021A000002100000081C00000000000055
:10104900000002080000020C00000216000002184D
:0E10590000000212000002140000020A000053
:10106800EF1FAA0670011E4A600BE4FDEDC39471E0
:0510780050EE0D80F7B1
:01107D002250
:10080000E4F524F525F526F5277590FFE51B25E091
:10081000241CF8E6FE08E62482F58274103EF58377
:10082000E493F580747E251BF5827410351AF583E8
:10083000E493F590E5A0540F750E00F50FE52745FC
:10084000266008E527152770021526E50F640F4579
:100850000E70030208FCE527452660030208FC75BC
:100860002613752788E50F6407450E7013E51BAE48
:100870001A7802C333CE33CED8F9F5098E08804FEB
:10088000E50F640B450E7011E51BAE1A7802C333F9
:10089000CE33CED8F924018030E50F640D450E70BB
:1008A00011E51BAE1A7802C333CE33CED8F9240239
:1008B0008017E50F640E450E7015E51BAE1A780221
:1008C000C333CE33CED8F92403F509E43EF508C38B
:1008D000E509940AE50864809480501A85202285F1
:1008E0002123851E20851F21851C1E851D1F85082F
:1008F0001C85091D800685080C85090DE50D450C34
:100900007003020E8AE50D640A450C7003020D782F
:10091000E50D640C450C6003020A20E515451470D2
:10092000030209CEAE20AF217C007D64120EA2AA84
:1009300006AB07AE22AF237C037DE8120EA2EF2B9D
:10094000FBEE3AFAAE1EAF1F7C007D0A120EA2EF3C
:100950002BFFEE3AFEE51D2FF519E51C3EF518E4D8
:10096000F522F523F520F521F51EF51FF51CF51DE3
:10097000E51564014514700CE5192517F517E51800
:100980003516F516E51564024514700DC3E5179587
:1009900019F517E5169518F516E515640345147055
:1009A0000FAE16AF17AC18AD19120EA28E168F1718
:1009B000E51564044514700FAE16AF17AC18AD19E9
:1009C000120EB48E168F17E4F514F51580527514B7
:1009D00000751501AE20AF217C007D64120EA2AA25
:1009E00006AB07AE22AF237C037DE8120EA2EF2BED
:1009F000FBEE3AFAAE1EAF1F7C007D0A120EA2EF8C
:100A00002BFFEE3AFEE51D2FF517E51C3EF516E42B
:100A1000F522F523F520F521F51EF51FF51CF51D32
:100A2000E50D640D450C6003020B30E515451470AF
:100A300003020ADEAE20AF217C007D64120EA2AA62
:100A400006AB07AE22AF237C037DE8120EA2EF2B8C
:100A5000FBEE3AFAAE1EAF1F7C007D0A120EA2EF2B
:100A60002BFFEE3AFEE51D2FF519E51C3EF518E4C7
:100A7000F522F523F520F521F51EF51FF51CF51DD2
:100A8000E51564014514700CE5192517F517E518EF
:100A90003516F516E51564024514700DC3E5179576
:100AA00019F517E5169518F516E515640345147044
:100AB0000FAE16AF17AC18AD19120EA28E168F1707
:100AC000E51564044514700FAE16AF17AC18AD19D8
:100AD000120EB48E168F17E4F514F51580527514A6
:100AE00000751502AE20AF217C007D64120EA2AA13
:100AF00006AB07AE22AF237C037DE8120EA2EF2BDC
:100B0000FBEE3AFAAE1EAF1F7C007D0A120EA2EF7A
:100B10002BFFEE3AFEE51D2FF517E51C3EF516E41A
:100B2000F522F523F520F521F51EF51FF51CF51D21
:100B3000E50D640E450C6003020C40E5154514708C
:100B400003020BEEAE20AF217C007D64120EA2AA40
:100B500006AB07AE22AF237C037DE8120EA2EF2B7B
:100B6000FBEE3AFAAE1EAF1F7C007D0A120EA2EF1A
:100B70002BFFEE3AFEE51D2FF519E51C3EF518E4B6
:100B8000F522F523F520F521F51EF51FF51CF51DC1
:100B9000E51564014514700CE5192517F517E518DE
:100BA0003516F516E51564024514700DC3E5179565
:100BB00019F517E5169518F516E515640345147033
:100BC0000FAE16AF17AC18AD19120EA28E168F17F6
:100BD000E51564044514700FAE16AF17AC18AD19C7
:100BE000120EB48E168F17E4F514F5158052751495
:100BF00000751503AE20AF217C007D64120EA2AA01
:100C000006AB07AE22AF237C037DE8120EA2EF2BCA
:100C1000FBEE3AFAAE1EAF1F7C007D0A120EA2EF69
:100C20002BFFEE3AFEE51D2FF517E51C3EF516E409
:100C3000F522F523F520F521F51EF51FF51CF51D10
:100C4000E50D640F450C6003020D50E51545147069
:100C500003020CFEAE20AF217C007D64120EA2AA1E
:100C600006AB07AE22AF237C037DE8120EA2EF2B6A
:100C7000FBEE3AFAAE1EAF1F7C007D0A120EA2EF09
:100C80002BFFEE3AFEE51D2FF519E51C3EF518E4A5
:100C9000F522F523F520F521F51EF51FF51CF51DB0
:100CA000E51564014514700CE5192517F517E518CD
:100CB0003516F516E51564024514700DC3E5179554
:100CC00019F517E5169518F516E515640345147022
:100CD0000FAE16AF17AC18AD19120EA28E168F17E5
:100CE000E51564044514700FAE16AF17AC18AD19B6
:100CF000120EB48E168F17E4F514F5158052751484
:100D000000751504AE20AF217C007D64120EA2AAEE
:100D100006AB07AE22AF237C037DE8120EA2EF2BB9
:100D2000FBEE3AFAAE1EAF1F7C007D0A120EA2EF58
:100D30002BFFEE3AFEE51D2FF517E51C3EF516E4F8
:100D4000F522F523F520F521F51EF51FF51CF51DFF
:100D5000E50D640B450C7020F514F515F512F5132F
:100D6000F518F519F516F517F522F523F520F521F7
:100D7000F51EF51FF51CF51DE50D640A450C600315
:100D8000020E85E51545147003020E23AE20AF2137
:100D90007C007D64120EA2AA06AB07AE22AF237CB4
:100DA000037DE8120EA2EF2BFBEE3AFAAE1EAF1F48
:100DB0007C007D0A120EA2EF2BFFEE3AFEE51D2FFE
:100DC000F519E51C3EF518E51564014514700CE5B0
:100DD000192517F517E5183516F516E515640245BA
:100DE00014700DC3E5179519F517E5169518F51646
:100DF000E51564034514700FAE16AF17AC18AD19A6
:100E0000120EA28E168F17E51564044514700FAEEE
:100E100016AF17AC18AD19120EB48E168F17E4F575
:100E200014F515851612851713851612851713AE3E
:100E300012AF137C037DE8120EB48E228F23AE1204
:100E4000AF137C037DE8120EB47E007F64CFCDCF5C
:100E5000CECCCE120EB48E208F21AE12AF137C00FA
:100E60007D64120EB47E007F0ACFCDCFCECCCE12E1
:100E70000EB48E1E8F1FAE12AF137C007D0A120EB1
:100E8000B48C1C8D1DE4F50CF50D051BE51B7002E3
:100E9000051A6404451A6003020809F51AF51B02D5
:020EA00008093F
:100FCB00752800752903747E2529F5827410352840
:100FDB00F583E493F5907580FB7F647E001200002F
:100FEB007580FD7F647E001200007580FE7F647E3D
:100FFB00001200007580DF7F647E00120000758098
:10100B00EF7F647E001200007580FF7F647E00120C
:10101B00000075807F7F647E00120000E529152992
:0D102B0070021528C3E52864809480509958
:011038002295
:100F4B00020800E493A3F8E493A34003F68001F2B4
:100F5B0008DFF48029E493A3F85407240CC8C333A7
:100F6B00C4540F4420C8834004F456800146F6DF76
:100F7B00E4800B0102040810204080901039E47EBD
:100F8B00019360BCA3FF543F30E509541FFEE4936B
:100F9B00A360010ECF54C025E060A840B8E493A332
:100FAB00FAE493A3F8E493A3C8C582C8CAC583CA5D
:100FBB00F0A3C8C582C8CAC583CADFE9DEE780BE15
:011067000088
:100EA200EF8DF0A4A8F0CF8CF0A428CE8DF0A42E64
:020EB200FE221E
:100EB400C2D5EC30E709B2D5E4C39DFDE49CFCEE59
:100EC40030E715B2D5E4C39FFFE49EFE120EEAC3D9
:100ED400E49DFDE49CFC8003120EEA30D507C3E4D4
:060EE4009FFFE49EFE22C8
:100EEA00BC000BBE0029EF8DF084FFADF022E4CCEC
:100EFA00F875F008EF2FFFEE33FEEC33FCEE9DECB5
:100F0A00984005FCEE9DFE0FD5F0E9E4CEFD22EDFA
:100F1A00F8F5F0EE8420D21CFEADF075F008EF2F44
:100F2A00FFED33FD4007985006D5F0F222C398FD35
:050F3A000FD5F0EA22D2
:00000001FF
