:03000000020800F3
:0C080000787FE4F6D8FD758121020847DE
:10099300100A55303332323331305530333232333B
:0609A300333702080000DA
:06095E00D2977F017E002C
:10096400EF1FAA0670011E4A600BE4FDEDC39471EB
:0509740050EE0D80F7BC
:01097900225B
:10090800E4F51AF51B12097A7F801209BB7E007F75
:10091800008E088F0912088CE51B451A6008E51B34
:10092800151B7002151A20B2EFE51B451A70E90570
:1009380009E50970020508C39402E50864809480FB
:100948004005E4F508F509AF09AE0812088C751AD8
:0609580046751B5080C231
:10088C00EF4E7009F51EF51FF520752108EF640178
:10089C004E7009F51E751F08F520F521851E1C8567
:1008AC001F1DE51F2407FFE4351EFED3E51D9FEE3B
:1008BC006480F8E51C648098500D1209AA051DE5AA
:1008CC001D70DF051C80DB7FA91209BB85201C85F0
:1008DC00211DE5212407FFE43520FED3E51D9FEE05
:1008EC006480F8E51C648098500D1209AA051DE57A
:0C08FC001D70DF051C80DB7F800209BB43
:0709AA00740A251DF8E6FFA9
:0A09B1008F80D29612095EC29722D1
:0A09BB008F80C29612095EC29722D7
:10097A007F381209BB7F0C1209BB7F061209BB7FA5
:09098A00011209BB7F020209BB46
:10080C00020908E493A3F8E493A34003F68001F2F1
:10081C0008DFF48029E493A3F85407240CC8C333ED
:10082C00C4540F4420C8834004F456800146F6DFBC
:10083C00E4800B0102040810204080900993E47EB0
:10084C00019360BCA3FF543F30E509541FFEE493B1
:10085C00A360010ECF54C025E060A840B8E493A378
:10086C00FAE493A3F8E493A3C8C582C8CAC583CAA3
:10087C00F0A3C8C582C8CAC583CADFE9DEE780BE5B
:0109A900004D
:00000001FF
