:03000000020E816C
:0C0E8100787FE4F6D8FD758126020EC8CB
:100F8E00FEFDFBF7C0F9A4B0999282F88098888391
:040F9E00C6A1868ED4
:100F0D00021D0000020D0000081F0000000000007F
:100F1D00000002080000020A00000213000002197E
:100F2D000000021B0000020F00000215000002115C
:020F3D000000B2
:060F4000D2977F017E0044
:100F4600EF1FAA0670011E4A600BE4FDEDC3947103
:050F560050EE0D80F7D4
:010F5B002273
:10080000759850758920758BFD758DFDD28E120FF0
:10081000757F80120FA27590FFE51E25E0241FF85A
:10082000E6FE08E62492F582740F3EF583E493F524
:1008300080748E251EF582740F351DF583E493F5C3
:1008400090209803020972C29885990C7430250C87
:10085000F50CB4610C750800750901751700751861
:1008600001E50CB4620C7508007509027517007576
:100870001801E50CB4630C750800750903751700C1
:10088000751801E50CB4640C75080075090475173A
:1008900000751801E50CB4650C750800750905753F
:1008A0001700751801E50CB4660C7508007509068B
:1008B000751700751801E50CB4670C75080075090B
:1008C00007751700751801E50CB4680C75080075FC
:1008D0000908751700751801E50CB4690C75080056
:1008E000750909751700751801E50CB4600AE4F57F
:1008F00008F509F517751801E51864014517702BFF
:10090000852325852426852123852224851F21856D
:10091000202285081F850920E5092430FF120F6B6E
:10092000E5092430F5993099FDC299E50CB45B06D0
:10093000750A00750B0CE50CB45D06750A00750BA5
:100940000DE50CB45A06750A00750B0EE50CB45F84
:1009500006750A00750B0FE50CB43D06750A0075A7
:100960000B0AE50CB45E06750A00750B0BE4F5176F
:10097000F518E50B450A7003020DCCE50B640A453A
:100980000A7003020B63E50B640C450A601BE50B60
:10099000640D450A6013E50B640E450A600BE50B18
:1009A000640F450A6003020B63E50B640C450A7093
:1009B0000D7F2B120F6B75992B3099FDC299E50BAA
:1009C000640D450A700D7F2D120F6B75992D3099AE
:1009D000FDC299E50B640E450A700D7F2A120F6B5C
:1009E00075992A3099FDC299E50B640F450A700D7F
:1009F0007F2F120F6B75992F3099FDC299E516451F
:100A0000157003020AE3AE23AF247C007D64120D4F
:100A1000E4AA06AB07AE25AF267C037DE8120DE401
:100A2000EF2BFBEE3AFAAE21AF227C007D0A120DCD
:100A3000E4EF2BFFEE3AFEE5202FF51CE51F3EF517
:100A40001BE4F525F526F523F524F521F522F51F00
:100A5000F520E51664014515700CE51C251AF51AFC
:100A6000E51B3519F519E51664024515700DC3E54A
:100A70001A951CF51AE519951BF519E51664034539
:100A800015700FAE19AF1AAC1BAD1C120DE48E1908
:100A90008F1AE51664044515700FAE19AF1AAC1B1A
:100AA000AD1C120DF68E198F1AE50B640C450A70F9
:100AB00005F515751601E50B640D450A7005F5156C
:100AC000751602E50B640E450A7005F515751603DB
:100AD000E50B640F450A6003020B63F515751604F8
:100AE000020B63E50B640C450A7005F515751601DC
:100AF000E50B640D450A7005F515751602E50B64E6
:100B00000E450A7005F515751603E50B640F450AC9
:100B10007005F515751604AE23AF247C007D6412B4
:100B20000DE4AA06AB07AE25AF267C037DE8120DC7
:100B3000E4EF2BFBEE3AFAAE21AF227C007D0A12E5
:100B40000DE4EF2BFFEE3AFEE5202FF51AE51F3EF0
:100B5000F519E4F525F526F523F524F521F522F51B
:100B60001FF520E50B640B450A702AF515F516F5FF
:100B70000FF510F51BF51CF519F51AF525F526F5F9
:100B800023F524F521F522F51FF5207F01120FA290
:100B90007F02120FA2E50B640A450A6003020DC72B
:100BA000E51645157003020C40AE23AF247C007D92
:100BB00064120DE4AA06AB07AE25AF267C037DE8E0
:100BC000120DE4EF2BFBEE3AFAAE21AF227C007D52
:100BD0000A120DE4EF2BFFEE3AFEE5202FF51CE59F
:100BE0001F3EF51BE51664014515700CE51C251A22
:100BF000F51AE51B3519F519E51664024515700D52
:100C0000C3E51A951CF51AE519951BF519E5166447
:100C1000034515700FAE19AF1AAC1BAD1C120DE4D5
:100C20008E198F1AE51664044515700FAE19AF1AA8
:100C3000AC1BAD1C120DF68E198F1AE4F515F516C6
:100C400085190F851A107FA9120FA27F3D120F6B15
:100C500075993D3099FDC299C3E50F648094805029
:100C60001C7F2D120F6B75992D3099FDC299AE0F17
:100C7000AF107CFF7DFF120DE48E0F8F10C3E510C7
:100C800094E8E50F64809483400BAE0FAF107C03B3
:100C90007DE8120F64C3E5109464E50F64809480CE
:100CA0004010AE0FAF107C037DE8120DF67F64128A
:100CB0000F5CC3E510940AE50F648094804010AE89
:100CC0000FAF107C007D64120DF67F0A120F5CAE30
:100CD0000FAF107C007D0A120DF6ED2430FF120FCD
:100CE0006BAE0FAF107C037DE8120DF6AA06AB07C2
:100CF0008A258B26AE0FAF107C037DE8120DF67EA1
:100D0000007F64CFCDCFCECCCE120DF68E238F24B4
:100D1000AE0FAF107C007D64120DF67E007F0ACF0F
:100D2000CDCFCECCCE120DF68E218F22AE0FAF10CE
:100D30007C007D0A120DF68C1F8D20C3E51094E80F
:100D4000E50F64809483400CAF03EF2430F59930B5
:100D500099FDC299C3E5109464E50F6480948040C6
:100D600022AE0FAF107C037DE8120DF67E007F648B
:100D7000CFCDCFCECCCE120DF6EF2430F5993099F1
:100D8000FDC299C3E510940AE50F64809480402267
:100D9000AE0FAF107C007D64120DF67E007F0ACF8F
:100DA000CDCFCECCCE120DF6EF2430F5993099FD93
:100DB000C299AE0FAF107C007D0A120DF6ED243003
:100DC000F5993099FDC299E4F50AF50B051EE51E6B
:100DD0007002051D6404451D6003020816F51DF52B
:040DE0001E020816D1
:0F0F5C007E00CFCDCFCECCCE120DF6EF2430FFDE
:0A0F6B008F80D296120F40C2972229
:0A0FA2008F80C296120F40C2972202
:100F75007F38120FA27F0C120FA27F06120FA27FDD
:090F850001120FA27F02020FA26B
:100E8D00020800E493A3F8E493A34003F68001F273
:100E9D0008DFF48029E493A3F85407240CC8C33366
:100EAD00C4540F4420C8834004F456800146F6DF35
:100EBD00E4800B0102040810204080900F0DE47EA9
:100ECD00019360BCA3FF543F30E509541FFEE4932A
:100EDD00A360010ECF54C025E060A840B8E493A3F1
:100EED00FAE493A3F8E493A3C8C582C8CAC583CA1C
:100EFD00F0A3C8C582C8CAC583CADFE9DEE780BED4
:010F3F0000B1
:100DE400EF8DF0A4A8F0CF8CF0A428CE8DF0A42E23
:020DF400FE22DD
:100DF600C2D5EC30E709B2D5E4C39DFDE49CFCEE18
:100E060030E715B2D5E4C39FFFE49EFE120E2CC355
:100E1600E49DFDE49CFC8003120E2C30D507C3E450
:060E26009FFFE49EFE2286
:100E2C00BC000BBE0029EF8DF084FFADF022E4CCAA
:100E3C00F875F008EF2FFFEE33FEEC33FCEE9DEC73
:100E4C00984005FCEE9DFE0FD5F0E9E4CEFD22EDB9
:100E5C00F8F5F0EE8420D21CFEADF075F008EF2F03
:100E6C00FFED33FD4007985006D5F0F222C398FDF4
:050E7C000FD5F0EA2291
:00000001FF
