:03000000020FEDFF
:0C0FED00787FE4F6D8FD758125021034F1
:1010FA00FEFDFBF7C0F9A4B0999282F88098888324
:04110A00C6A1868E66
:10107900021C0000020E0000081E00000000000013
:10108900000002080000020A000002140000021811
:101099000000021A000002100000021600000212ED
:0210A900000045
:0610AC00D2977F017E00D7
:1010B200EF1FAA0670011E4A600BE4FDEDC3947196
:0510C20050EE0D80F767
:0110C7002206
:100800001210E17F8012110E7590FFE51D25E02486
:100810001EF8E6FE08E624FEF58274103EF583E439
:1008200093F58074FA251DF5827410351CF583E468
:1008300093F590E5A0540F750C00F50DE5154514E2
:100840006008E515151570021514E50D640F450CCB
:100850007003020903E515451460030209037514CA
:1008600013751588E50D6407450C7013E51DAE1C66
:100870007802C333CE33CED8F9F5098E08804FE520
:100880000D640B450C7011E51DAE1C7802C333CE10
:1008900033CED8F924018030E50D640D450C70117C
:1008A000E51DAE1C7802C333CE33CED8F9240280C6
:1008B00017E50D640E450C7015E51DAE1C7802C3DE
:1008C00033CE33CED8F92403F509E43EF508C3E569
:1008D00009940AE5086480948050228522248523A7
:1008E00025852022852123851E20851F2185081E20
:1008F00085091FE5092430FF1210D7800685080AF4
:1009000085090BE50B450A7003020F38E50B640AF5
:10091000450A7003020DA1E50B640C450A60030251
:100920000A2D7F2B1210D7E517451670030209DB3D
:10093000AE22AF237C007D64120F50AA06AB07AE37
:1009400024AF257C037DE8120F50EF2BFBEE3AFA23
:10095000AE20AF217C007D0A120F50EF2BFFEE3A44
:10096000FEE51F2FF51BE51E3EF51AE4F524F525DF
:10097000F522F523F520F521F51EF51FE517640195
:100980004516700CE51B2519F519E51A3518F518EB
:10099000E51764024516700DC3E519951BF519E5B9
:1009A00018951AF518E51764034516700FAE18AFC1
:1009B00019AC1AAD1B120F508E188F19E51764046D
:1009C0004516700FAE18AF19AC1AAD1B120F628E20
:1009D000188F197516007517018052751600751756
:1009E00001AE22AF237C007D64120F50AA06AB0734
:1009F000AE24AF257C037DE8120F50EF2BFBEE3ABF
:100A0000FAAE20AF217C007D0A120F50EF2BFFEED3
:100A10003AFEE51F2FF519E51E3EF518E4F524F51D
:100A200025F522F523F520F521F51EF51FE50B64CC
:100A30000D450A6003020B437F2D1210D7E51745C1
:100A4000167003020AF1AE22AF237C007D64120F00
:100A500050AA06AB07AE24AF257C037DE8120F50E9
:100A6000EF2BFBEE3AFAAE20AF217C007D0A120F8D
:100A700050EF2BFFEE3AFEE51F2FF51BE51E3EF56E
:100A80001AE4F524F525F522F523F520F521F51EC8
:100A9000F51FE51764014516700CE51B2519F519BE
:100AA000E51A3518F518E51764024516700DC3E50B
:100AB00019951BF519E518951AF518E517640345FE
:100AC00016700FAE18AF19AC1AAD1B120F508E185E
:100AD0008F19E51764044516700FAE18AF19AC1ADC
:100AE000AD1B120F628E188F1975160075170280D4
:100AF00052751600751702AE22AF237C007D64127A
:100B00000F50AA06AB07AE24AF257C037DE8120F79
:100B100050EF2BFBEE3AFAAE20AF217C007D0A129B
:100B20000F50EF2BFFEE3AFEE51F2FF519E51E3EA5
:100B3000F518E4F524F525F522F523F520F521F542
:100B40001EF51FE50B640E450A6003020C597F2A4F
:100B50001210D7E51745167003020C07AE22AF231B
:100B60007C007D64120F50AA06AB07AE24AF257C33
:100B7000037DE8120F50EF2BFBEE3AFAAE20AF21C7
:100B80007C007D0A120F50EF2BFFEE3AFEE51F2F7F
:100B9000F51BE51E3EF51AE4F524F525F522F523AF
:100BA000F520F521F51EF51FE51764014516700CBB
:100BB000E51B2519F519E51A3518F518E51764022E
:100BC0004516700DC3E519951BF519E518951AF52D
:100BD00018E51764034516700FAE18AF19AC1AADBF
:100BE0001B120F508E188F19E51764044516700FED
:100BF000AE18AF19AC1AAD1B120F628E188F197593
:100C000016007517038052751600751703AE22AFD4
:100C1000237C007D64120F50AA06AB07AE24AF25DB
:100C20007C037DE8120F50EF2BFBEE3AFAAE20AFBB
:100C3000217C007D0A120F50EF2BFFEE3AFEE51FDC
:100C40002FF519E51E3EF518E4F524F525F522F5F6
:100C500023F520F521F51EF51FE50B640F450A600D
:100C600003020D6F7F2F1210D7E517451670030290
:100C70000D1DAE22AF237C007D64120F50AA06AB7F
:100C800007AE24AF257C037DE8120F50EF2BFBEE5F
:100C90003AFAAE20AF217C007D0A120F50EF2BFFF5
:100CA000EE3AFEE51F2FF51BE51E3EF51AE4F5248E
:100CB000F525F522F523F520F521F51EF51FE5179D
:100CC00064014516700CE51B2519F519E51A351850
:100CD000F518E51764024516700DC3E519951BF567
:100CE00019E518951AF518E51764034516700FAE47
:100CF00018AF19AC1AAD1B120F508E188F19E517CB
:100D000064044516700FAE18AF19AC1AAD1B120F64
:100D1000628E188F197516007517048052751600AB
:100D2000751704AE22AF237C007D64120F50AA0613
:100D3000AB07AE24AF257C037DE8120F50EF2BFBF1
:100D4000EE3AFAAE20AF217C007D0A120F50EF2B55
:100D5000FFEE3AFEE51F2FF519E51E3EF518E4F506
:100D600024F525F522F523F520F521F51EF51FE5DF
:100D70000B640B450A702AF516F517F510F511F5F9
:100D80001AF51BF518F519F524F525F522F523F5C7
:100D900020F521F51EF51F7F0112110E7F021211A1
:100DA0000EE50B640A450A6003020F33E51745168A
:100DB0007003020E4CAE22AF237C007D64120F50F4
:100DC000AA06AB07AE24AF257C037DE8120F50EFD7
:100DD0002BFBEE3AFAAE20AF217C007D0A120F50B9
:100DE000EF2BFFEE3AFEE51F2FF51BE51E3EF51A31
:100DF000E51764014516700CE51B2519F519E51A70
:100E00003518F518E51764024516700DC3E51995F8
:100E10001BF519E518951AF518E5176403451670C2
:100E20000FAE18AF19AC1AAD1B120F508E188F19D8
:100E3000E51764044516700FAE18AF19AC1AAD1B58
:100E4000120F628E188F19E4F516F51785181085A4
:100E500019117FA912110E7F3D1210D7C3E510643E
:100E600080948050147F2D1210D7AE10AF117CFFEC
:100E70007DFF120F508E108F11C3E51194E8E5101D
:100E800064809483400BAE10AF117C037DE8121098
:100E9000D0C3E5119464E510648094804010AE10D6
:100EA000AF117C037DE8120F627F641210C8C3E5A6
:100EB00011940AE510648094804010AE10AF117C4C
:100EC000007D64120F627F0A1210C8AE10AF117C51
:100ED000007D0A120F62ED2430FF1210D7AE10AF62
:100EE000117C037DE8120F628E248F25AE10AF11A6
:100EF0007C037DE8120F627E007F64CFCDCFCECC25
:100F0000CE120F628E228F23AE10AF117C007D6453
:100F1000120F627E007F0ACFCDCFCECCCE120F62F1
:100F20008E208F21AE10AF117C007D0A120F628CD3
:100F30001E8D1FE4F50AF50B051DE51D7002051C4D
:100F40006404451C6003020808F51CF51D0208082E
:0F10C8007E00CFCDCFCECCCE120F62EF2430FF03
:0A10D7008F80D2961210ACC297224F
:0A110E008F80C2961210ACC2972227
:1010E1007F3812110E7F0C12110E7F0612110E7F26
:0910F1000112110E7F0202110E22
:100FF900020800E493A3F8E493A34003F68001F206
:1010090008DFF48029E493A3F85407240CC8C333F8
:10101900C4540F4420C8834004F456800146F6DFC7
:10102900E4800B0102040810204080901079E47ECE
:10103900019360BCA3FF543F30E509541FFEE493BC
:10104900A360010ECF54C025E060A840B8E493A383
:10105900FAE493A3F8E493A3C8C582C8CAC583CAAE
:10106900F0A3C8C582C8CAC583CADFE9DEE780BE66
:0110AB000044
:100F5000EF8DF0A4A8F0CF8CF0A428CE8DF0A42EB5
:020F6000FE226F
:100F6200C2D5EC30E709B2D5E4C39DFDE49CFCEEAA
:100F720030E715B2D5E4C39FFFE49EFE120F98C37B
:100F8200E49DFDE49CFC8003120F9830D507C3E476
:060F92009FFFE49EFE2219
:100F9800BC000BBE0029EF8DF084FFADF022E4CC3D
:100FA800F875F008EF2FFFEE33FEEC33FCEE9DEC06
:100FB800984005FCEE9DFE0FD5F0E9E4CEFD22ED4C
:100FC800F8F5F0EE8420D21CFEADF075F008EF2F96
:100FD800FFED33FD4007985006D5F0F222C398FD87
:050FE8000FD5F0EA2224
:00000001FF
