:030000000208EE05
:0C08EE00787FE4F6D8FD7581170209350B
:10099000FEFDFBF7C0F9A4B0999282F88098888395
:0409A000C6A1868ED8
:1009A400020C0000020A0000080E00000000000013
:0209B400000041
:10097A00EF1FAA0670011E4A600BE4FDEDC39471D5
:05098A0050EE0D80F7A6
:01098F002245
:10080000E4F516F517FDFC7590FFE50D25E0240EC7
:10081000F8E6FE08E62494F58274093EF583E49335
:10082000F5807490250DF5827409350CF583E493F9
:10083000F590E5A0540F750800F509ED4C6005ED45
:100840001D70011CE509640F450870030208D6ED10
:100850004C60030208D67C137D888512148513151D
:10086000851012851113850E10850F11E509640797
:1008700045087013E50DAE0C7802C333CE33CED8E5
:10088000F9F50F8E0E804FE509640B45087011E5F0
:100890000DAE0C7802C333CE33CED8F924018030AC
:1008A000E509640D45087011E50DAE0C7802C333FF
:1008B000CE33CED8F924028017E509640E450870BE
:1008C00015E50DAE0C7802C333CE33CED8F9240330
:1008D000F50FE43EF50E050DE50D7002050C640400
:0E08E000450C6003020807F50CF50D02080731
:1008FA00020800E493A3F8E493A34003F68001F20C
:10090A0008DFF48029E493A3F85407240CC8C333FE
:10091A00C4540F4420C8834004F456800146F6DFCD
:10092A00E4800B01020408102040809009A4E47EB0
:10093A00019360BCA3FF543F30E509541FFEE493C2
:10094A00A360010ECF54C025E060A840B8E493A389
:10095A00FAE493A3F8E493A3C8C582C8CAC583CAB4
:10096A00F0A3C8C582C8CAC583CADFE9DEE780BE6C
:0109B6000040
:00000001FF
