:03000000020F3BB1
:0C0F3B00787FE4F6D8FD758131020800D3
:100EAC00FEFDFBF7C0F9A4B0999282F88098888374
:100EBC00C6A1868E928CF700000000000000000096
:100ECC0000000000000000FFFFFFFF86AFAFA3AFE4
:040EDC00FFFFFFFF16
:100F2500EF1FAA0670011E4A600BE4FDEDC3947124
:050F350050EE0D80F7F5
:010F3A002294
:10080000E4F508F509780A7C00FD7BFF7A0E79C3D0
:10081000FE7F08120D1EE4F514F5157516177517F1
:1008200070F51CF51DF51EF51FF520F521F522F5D7
:100830002378267C00FD7BFF7A0E79CBFE7F0812A1
:100840000D1EC2B07590FFE509640145087022E5F0
:100850001D451C701CE50925E0240AF8E6FE08E6A3
:1008600024B0F582740E3EF583E4936480F58080B5
:1008700018E50925E0240AF8E6FE08E624B0F5822A
:10088000740E3EF583E493F58074AC2509F582740B
:100890000E3508F583E493F590E5A0540FFF7E0034
:1008A000E51745166008E517151770021516EF6471
:1008B0000F4E7003020955E51745166003020955EE
:1008C000751617751770EF64074E7013E509AE08BB
:1008D0007802C333CE33CED8F9F5138E128049EFA8
:1008E000640B4E7011E509AE087802C333CE33CEE7
:1008F000D8F92401802CEF640D4E7011E509AE0883
:100900007802C333CE33CED8F924028015EF640EBB
:100910004E7015E509AE087802C333CE33CED8F950
:100920002403F513E43EF512C3E513940AE51264BB
:10093000809480501A852A2C852B2D85282A85297C
:100940002B8526288527298512268513278006854D
:100950001224851325E52545247003020A19E5258F
:10096000640A45247005F51E751F01E525640B45D5
:10097000247004F51EF51FE525640C4524701CF554
:100980001EF51FF522F523F520F521F50AF50BF5E7
:100990000CF50DF50EF50FF510F511E525640F4575
:1009A000247009F51EF51FF520752101E525640E5B
:1009B00045247060120E5AAE2AAF2B7C007D641263
:1009C0000D44AA06AB07AE2CAF2D7C037DE8120DBB
:1009D00044EF2BFBEE3AFAAE28AF297C007D0A12D9
:1009E0000D44EF2BFFEE3AFEE5272FF51BE5263EE3
:1009F000F51AC3E51B94DCE51A648094855006E57E
:100A00002145207005120DE1800AE4F520F521F55D
:100A100022752301E4F524F525E5236401452260D0
:100A200003020B41E51564A07004E514640F600334
:100A3000020B41120F0A30B1FD30B117C3E5199412
:100A4000B8E5186480948B500A0519E51970EA0519
:100A50001880E6AE18AF197C007D03120D448E1885
:100A60008F19AE1AAF1B7D09120D440D120D56AB36
:100A700007AA06AE1AAF1B7C007D0B120D441D1297
:100A80000D56C3E5199BEA6480F8E5186480984028
:100A900030D3E5199FEE6480F8E518648098502102
:100AA000751000751111750E00750F0A750C007523
:100AB0000D10750A00750B10751C00751D01020BD9
:100AC00041AE18AF197C037DE8120D568E108F11C0
:100AD000AE18AF197C037DE8120D567E007F64CFFF
:100AE000CDCFCECCCE120D568E0E8F0FAE18AF19C5
:100AF0007C007D64120D567E007F0ACFCDCFCECC18
:100B0000CE120D568E0C8F0DAE18AF197C007D0ADB
:100B1000120D568C0A8D0BE4F51CF51DC3E51994D6
:100B2000B8E5186480948B40187510007511127523
:100B30000E00750F12750C00750D12750A00750BFD
:100B400012E521640145207018852C10852D118532
:100B50002A0E852B0F85280C85290D85260A8527C9
:100B60000BC3E51594A0E5146480948F5008051517
:100B7000E51570020514E51F6401451E6003020CB3
:100B800036E51564A07004E514640F6003020C36AA
:100B9000120F0A30B1FD30B117C3E51994B8E5184A
:100BA0006480948B500A0519E51970EA051880E6EF
:100BB000AE18AF197C007D03120D448E188F197C7E
:100BC000037DE8120D568E108F11AE18AF197C03FD
:100BD0007DE8120D567E007F64CFCDCFCECCCE12F5
:100BE0000D568E0E8F0FAE18AF197C007D64120D5E
:100BF000567E007F0ACFCDCFCECCCE120D568E0CB6
:100C00008F0DAE18AF197C007D0A120D568C0A8D1F
:100C10000BC3E51994B8E5186480948B40187510DF
:100C200000751112750E00750F12750C00750D12FE
:100C3000750A00750B120509E509700205086404C0
:0E0C400045086003020844F508F5090208445F
:080F0A00F514F515F518F519B1
:100F1200D2B0E4FFFE0FBF00010EEF647D4E70F50C
:020F2200C2B05B
:010F240022AA
:100E5A00752E00752F0374AC252FF582740E352E6E
:100E6A00F583E493F5907580FB120EE07580FD1210
:100E7A000EE07580FE120EE07580DF120EE07580BE
:100E8A00EF120EE07580FF120EE075807F120EE001
:100E9A00E52F152F7002152EC3E52E64809480501D
:010EAA00B592
:010EAB002224
:100DE100E4FFFEF52EF52F7D03FCF530F53175900E
:100DF100FFE52F2DFBE52E3CFA74D32BF582740E03
:100E01003AF583E493F58074AC2FF582740E3EF5C8
:100E110083E493F5900531E53170020530B4701229
:100E2100E530B4170D052FE52F7002052EE4F530DE
:100E3100F531E52F640A452E601E0FBF00010EEF4C
:100E410064044E7002FEFFED1D70011CBCFF9FBDCE
:080E5100FF9C7C007D038096EC
:010E59002276
:040EE0007F967E007B
:100EE400E4FDFCC3ED9FEE6480F8EC64809850153B
:100EF400E4FBFA0BBB00010AEB64284A70F50DBD54
:050F040000010C80DE7D
:010F090022C5
:100C4E00E709F608DFFA8046E709F208DFFA803E88
:100C5E0088828C83E709F0A3DFFA8032E309F60875
:100C6E00DFFA8078E309F208DFFA807088828C83DD
:100C7E00E309F0A3DFFA806489828A83E0A3F60891
:100C8E00DFFA805889828A83E0A3F208DFFA804C6B
:100C9E0080D280FA80C680D4806980F28033801042
:100CAE0080A680EA809A80A880DA80E280CA8033AB
:100CBE0089828A83ECFAE493A3C8C582C8CCC58323
:100CCE00CCF0A3C8C582C8CCC583CCDFE9DEE780F3
:100CDE000D89828A83E493A3F608DFF9ECFAA9F072
:100CEE00EDFB2289828A83ECFAE0A3C8C582C8CCC8
:100CFE00C583CCF0A3C8C582C8CCC583CCDFEADEE1
:100D0E00E880DB89828A83E493A3F208DFF980CC42
:100D1E0088F0EF60010E4E60C388F0ED2402B4043B
:100D2E000050B9F582EB2402B4040050AF232345E2
:060D3E008223900C9E735D
:100D4400EF8DF0A4A8F0CF8CF0A428CE8DF0A42EC3
:020D5400FE227D
:100D5600C2D5EC30E709B2D5E4C39DFDE49CFCEEB8
:100D660030E715B2D5E4C39FFFE49EFE120D8CC397
:100D7600E49DFDE49CFC8003120D8C30D507C3E492
:060D86009FFFE49EFE2227
:100D8C00BC000BBE0029EF8DF084FFADF022E4CC4B
:100D9C00F875F008EF2FFFEE33FEEC33FCEE9DEC14
:100DAC00984005FCEE9DFE0FD5F0E9E4CEFD22ED5A
:100DBC00F8F5F0EE8420D21CFEADF075F008EF2FA4
:100DCC00FFED33FD4007985006D5F0F222C398FD95
:050DDC000FD5F0EA2232
:00000001FF
